:100000000C942A000C943C000C943C000C943C0092
:100010000C943C000C943C000C943C000C943C0070
:100020000C943C000C943C000C943C000C943E005E
:100030000C943C000C943C000C943C000C943C0050
:100040000C943C000C943C000C943C000C943C0040
:100050000C943C0011241FBECFE5D4E0DEBFCDBF21
:1000600010E0A0E6B0E001C01D92A636B107E1F7AE
:100070000E9475000C94C3010C9400001F920F9213
:100080000FB60F9211242F933F934F935F936F936B
:100090007F938F939F93AF93BF93EF93FF935F9B58
:1000A000FECF9CB180916300813041F410926300D7
:1000B000983750F4892F0E940C0106C0907F903C25
:1000C00019F481E080936300FF91EF91BF91AF91AC
:1000D0009F918F917F916F915F914F913F912F9160
:1000E0000F900FBE0F901F9018950F931F93CF93F3
:1000F000DF930E94050102E010E0C1E0D0E00E9421
:10010000130182309105A9F08330910518F401970D
:10011000B1F706C083309105D1F0049781F730C064
:100120008091640090916500892B99F50E94F500FB
:10013000E6CF8091640090916500009719F00197D7
:1001400041F51BC0D0936500C0936400D8CF2091C7
:100150006400309165002230310551F023303105C3
:1001600061F0232BB1F41093650000936400C7CFB6
:100170009093650080936400C2CF0E94810109C002
:100180008091640090916500892B19F40E94CE0043
:10019000B6CF1092650010926400B1CF80916100DB
:1001A00090E0877090708130910549F08230910520
:1001B000ACF08230910541F0039781F40AC0809140
:1001C0006100887F82600EC080916100887F8360BB
:1001D00009C080916100887F846004C080916100C3
:1001E000887F81608093610008958091610082958D
:1001F0008F7080FF04C080916100807E03C0809179
:10020000610080618093610008950E9433010E9423
:100210004601109263000895809360000E948F0150
:100220000E944D0108950E944E01882319F022E09A
:1002300030E017C00E946901882319F021E030E006
:1002400010C00E945D01882319F023E030E009C04E
:100250000E947501882319F420E030E002C024E0F8
:1002600030E0C901089587E487BBC79A88B3887FC7
:1002700088BBC69A83E084BB85B3806385BB85B3A6
:100280008C7F85BB8FEF81BB12BA089580E98AB954
:1002900010BC81E089B908950895089583B38295CB
:1002A0008F7080FF02C080E0089588EA91E6019790
:1002B000F1F79C9BFECF81E00895B79B02C080E0E0
:1002C000089588EA91E60197F1F7B79BFECF81E0A8
:1002D0000895B79B02C080E0089588EA91E60197EF
:1002E000F1F7B79BFECF81E00895B79B02C080E095
:1002F000089588EA91E60197F1F7B79BFECF81E078
:10030000089580916000609161007091620090E0BA
:10031000880F991F805090400E94A101089590E09D
:10032000880F991F805090400E949B01909362001B
:10033000809361000895A8E1B0E042E050E00C94A1
:10034000A8010E94B601272F0C94B701DC01CB0154
:10035000FC01E199FECF06C0FFBBEEBBE09A3196EF
:100360000DB20D9241505040B8F70895262FE199F3
:10037000FECF9FBB8EBB2DBB0FB6F894E29AE19ADD
:0A0380000FBE01960895F894FFCF18
:00000001FF
